:100000000C942A000C9447000C9447000C94470071
:100010000C9447000C9447000C9447000C94470044
:100020000C9447000C9447000C9447000C94470034
:100030000C9447000C9447000C9447000C94470024
:100040000C9423050C9447000C9447000C94470033
:100050000C94470011241FBECFE5D8E0DEBFCDBF12
:1000600010E0A0E6B0E0E8E1F4E102C005900D92F6
:10007000AE3AB107D9F710E0AEEAB0E001C01D9288
:10008000AF3BB107E1F70E94D9050C940B0A0C9421
:100090000000CF93DF93CDB7DEB7E0E4F0E010824D
:1000A000E9E2F0E08FE08083EBE2F0E082E680833B
:1000B000EAE2F0E088E18083E0E4F0E086E8808333
:1000C000DF91CF910895CF93DF93CDB7DEB7E7E20D
:1000D000F0E080E48083E6E2F0E08EE98083A6E24F
:1000E000B0E0E6E2F0E0808180668C93DF91CF9112
:1000F0000895CF93DF93CDB7DEB7E4E3F0E010824D
:10010000DF91CF910895CF93DF93CDB7DEB72397DB
:100110000FB6F894DEBF0FBECDBF8B831A8281E08D
:1001200089838981282F33278B8199270197A901FA
:1001300002C0440F551F8A95E2F7CA018983E3E3A1
:10014000F0E080818A839A81898189238A838A81E8
:10015000992723960FB6F894DEBF0FBECDBFDF916F
:10016000CF910895CF93DF93CDB7DEB721970FB628
:10017000F894DEBF0FBECDBF1982E3E3F0E08081CB
:1001800089838981992721960FB6F894DEBF0FBE27
:10019000CDBFDF91CF910895CF93DF93CDB7DEB779
:1001A000E7E3F0E08FE08083E1E3F0E080EF80833D
:1001B000E8E3F0E08FEF8083E2E3F0E08FEF80830D
:1001C000DF91CF910895CF93DF93CDB7DEB723971B
:1001D0000FB6F894DEBF0FBECDBF89838981282F6B
:1001E00033273B832A838A819B818430910561F187
:1001F0002A813B812530310584F48A819B818230BC
:10020000910599F12A813B81233031052CF58A81B2
:100210009B818130910591F15DC02A813B8126301F
:10022000310509F446C08A819B81863091050CF422
:1002300049C02A813B812730310591F18A819B8118
:100240008830910521F146C0A2E3B0E0E2E3F0E09E
:1002500080818F778C933EC0A2E3B0E0E2E3F0E0D0
:1002600090818FEB89238C9335C0A2E3B0E0E2E369
:10027000F0E090818FED89238C932CC0A2E3B0E055
:10028000E2E3F0E090818FEE89238C9323C0A8E312
:10029000B0E0E8E3F0E0908187EF89238C931AC007
:1002A000A8E3B0E0E8E3F0E090818BEF89238C9342
:1002B00011C0A8E3B0E0E8E3F0E090818DEF89237E
:1002C0008C9308C0A8E3B0E0E8E3F0E090818EEF03
:1002D00089238C9323960FB6F894DEBF0FBECDBF53
:1002E000DF91CF910895CF93DF93CDB7DEB72397FA
:1002F0000FB6F894DEBF0FBECDBF89838981282F4A
:1003000033273B832A838A819B818430910561F165
:100310002A813B812530310584F48A819B8182309A
:10032000910591F12A813B81233031052CF58A8199
:100330009B818130910581F156C02A813B81263015
:10034000310509F441C08A819B81863091050CF406
:1003500043C02A813B812730310571F18A819B811D
:100360008830910509F13FC0A2E3B0E0E2E3F0E09C
:10037000808180688C9337C0A2E3B0E0E2E3F0E0D4
:10038000808180648C932FC0A2E3B0E0E2E3F0E0D0
:10039000808180628C9327C0A2E3B0E0E2E3F0E0CA
:1003A000808180618C931FC0A8E3B0E0E8E3F0E0B7
:1003B000808188608C9317C0A8E3B0E0E8E3F0E0A8
:1003C000808184608C930FC0A8E3B0E0E8E3F0E0A4
:1003D000808182608C9307C0A8E3B0E0E8E3F0E09E
:1003E000808181608C9323960FB6F894DEBF0FBE98
:1003F000CDBFDF91CF910895CF93DF93CDB7DEB717
:1004000023970FB6F894DEBF0FBECDBF89838981D5
:10041000282F33273B832A838A819B81843091054F
:1004200061F12A813B812530310584F48A819B81E9
:1004300082309105A1F12A813B812330310534F5C9
:100440008A819B818130910599F15EC02A813B812F
:100450002630310509F447C08A819B818630910599
:100460000CF44AC02A813B812730310599F18A81F9
:100470009B818830910529F147C0A2E3B0E0E2E317
:10048000F0E0908180E889278C933EC0A2E3B0E041
:10049000E2E3F0E0908180E489278C9335C0A2E309
:1004A000B0E0E2E3F0E0908180E289278C932CC0F9
:1004B000A2E3B0E0E2E3F0E0908180E189278C9351
:1004C00023C0A8E3B0E0E8E3F0E0908188E089276A
:1004D0008C931AC0A8E3B0E0E8E3F0E0908184E0F8
:1004E00089278C9311C0A8E3B0E0E8E3F0E09081A5
:1004F00082E089278C9308C0A8E3B0E0E8E3F0E04D
:10050000908181E089278C9323960FB6F894DEBF03
:100510000FBECDBFDF91CF910895CF93DF93CDB7BD
:10052000DEB721970FB6F894DEBF0FBECDBF89832B
:100530008981882324F488E00E94E30003C088E0D6
:100540000E9473018981992780749070009721F02F
:1005500087E00E94E30003C087E00E947301898165
:10056000992780729070009721F086E00E94E30046
:1005700003C086E00E947301898199278071907081
:10058000009721F085E00E94E30003C085E00E940F
:1005900073018981992788709070009721F084E019
:1005A0000E94E30003C084E00E94730189819927BF
:1005B00084709070009721F083E00E94E30003C0F4
:1005C00083E00E947301898199278270907000975F
:1005D00021F082E00E94E30003C082E00E947301E8
:1005E0008981992781709070882321F081E00E9491
:1005F000E30003C081E00E94730121960FB6F894D6
:10060000DEBF0FBECDBFDF91CF910895CF93DF93B3
:10061000CDB7DEB723970FB6F894DEBF0FBECDBFC0
:1006200089838981282F33273B832A838A819B8171
:100630008430910509F44FC02A813B812530310572
:10064000D4F48A819B8181309105C9F12A813B8153
:10065000223031052CF48A819B81009761F152C0D0
:100660002A813B812230310571F18A819B8183305F
:10067000910569F147C02A813B8127303105B9F1E5
:100680008A819B81883091055CF42A813B812530E9
:10069000310529F18A819B818630910521F132C093
:1006A0002A813B812830310531F18A819B81893053
:1006B000910529F127C08EEE0E948D0223C080E6AD
:1006C0000E948D021FC08DEC0E948D021BC089EE1E
:1006D0000E948D0217C083E60E948D0213C08BEA30
:1006E0000E948D020FC08FEA0E948D020BC080EE27
:1006F0000E948D0207C08FEE0E948D0203C08BEE18
:100700000E948D0223960FB6F894DEBF0FBECDBFB8
:10071000DF91CF910895CF93DF93CDB7DEB787E018
:100720000E94E30080E090E00E942C0487E00E9499
:10073000730180E090E00E942C04DF91CF91089536
:10074000CF93DF93CDB7DEB722970FB6F894DEBF15
:100750000FBECDBF89836A838A8182958F70282FCF
:10076000332789819927B9010E94C7038A81282FDD
:10077000332789819927B9010E94C70322960FB6B2
:10078000F894DEBF0FBECDBFDF91CF910895CF9318
:10079000DF93CDB7DEB723970FB6F894DEBF0FBE59
:1007A000CDBF8A836B83198288E00E94730181E048
:1007B000898305C00E948B0389818F5F898389812A
:1007C0008A30C0F388E00E94E3000E948B03198204
:1007D0001CC08B81282F332789819927A90102C04A
:1007E000559547958A95E2F7CA01817090708823E4
:1007F00021F088E00E94E30003C088E00E947301BA
:100800000E948B0389818F5F89838981843008F3FB
:100810008A81843621F488E00E94E30003C088E0E6
:100820000E9473010E948B0388E00E9473010E9462
:100830008B030E948B0388E00E94E3000E948B03DD
:1008400088E00E94730123960FB6F894DEBF0FBEB6
:10085000CDBFDF91CF910895CF93DF93CDB7DEB7B2
:1008600023970FB6F894DEBF0FBECDBF8B831982DE
:1008700081E08A830CC081E0898303C089818F5F16
:10088000898389818823D1F78A818F5F8A839A81BE
:100890008B81891780F781E08A8306C089818F5F09
:1008A00089838A818F5F8A838A818430B8F3239613
:1008B0000FB6F894DEBF0FBECDBFDF91CF91089584
:1008C000CF93DF93CDB7DEB78EE10E942C0463E0B7
:1008D00083E60E94A0038FE00E942C0463E083E67D
:1008E0000E94A00363E083E60E94A00362E083E627
:1008F0000E94A003DF91CF910895CF93DF93CDB7EE
:10090000DEB70E94600464E283E60E94A00369E00F
:1009100083E60E94A00360E283E60E94A0036CE0ED
:1009200083E60E94A00366E083E60E94A00360E8DD
:1009300083E60E94A0030E94D504DF91CF91089521
:10094000CF93DF93CDB7DEB723970FB6F894DEBF12
:100950000FBECDBF9B838A8319821BC089819927D3
:100960009C018A819B81F901E80FF91F808188230E
:1009700099F0898199279C018A819B81F901E80F6F
:10098000F91F8081682F84E60E94A00389818F5F10
:1009900089838981843110F323960FB6F894DEBFE2
:1009A0000FBECDBFDF91CF910895CF93DF93CDB729
:1009B000DEB761E083E60E94A00364E183E60E9463
:1009C000A003DF91CF910895CF93DF93CDB7DEB72A
:1009D00024970FB6F894DEBF0FBECDBF8B836C8318
:1009E000198262E083E60E94A00381E08A8310C03E
:1009F00081E0898307C064E183E60E94A0038981C6
:100A00008F5F898389818531B0F38A818F5F8A8383
:100A10009A818B81981760F381E08A8307C064E133
:100A200083E60E94A0038A818F5F8A839A818C81EA
:100A30009817A8F324960FB6F894DEBF0FBECDBF6B
:100A4000DF91CF9108951F920F920FB60F9211244C
:100A50002F933F938F939F93EF93FF93CF93DF93C6
:100A6000CDB7DEB72297DEBFCDBF8091B400282F6F
:100A700033273A83298389819A818130910561F1F5
:100A800029813A812230310509F447C089819A8150
:100A9000009709F061C0E4E2F0E08081992790932B
:100AA000B1008093B000E5E2F0E080819927982FB3
:100AB00088279C018091B0009091B100822B932BEC
:100AC0009093B1008093B00081E08093B400E7E29E
:100AD000F0E081E4808340C0E4E2F0E08081992787
:100AE0009093AF008093AE00E5E2F0E0808199271B
:100AF000982F88279C018091AE009091AF00822BA7
:100B0000932B9093AF008093AE0082E08093B4006B
:100B1000E7E2F0E082E480831FC0E4E2F0E080815D
:100B200099279093B3008093B200E5E2F0E08081D2
:100B30009927982F88279C018091B2009091B3004B
:100B4000822B932B9093B3008093B2001092B40049
:100B5000E7E2F0E080E480832296F894DEBFCDBF28
:100B6000DF91CF91FF91EF919F918F913F912F91C5
:100B70000F900FBE0F901F901895CF93DF93CDB7B6
:100B8000DEB7E4E4F0E01082E5E4F0E084E08083A6
:100B9000E2E5F0E01082E3E5F0E082E08083A9E5A1
:100BA000B0E0E9E5F0E0808181648C93DF91CF9142
:100BB00008950F931F93CF93DF93CDB7DEB76C9754
:100BC0000FB6F894DEBF0FBECDBF84E690E0988FDD
:100BD0008F8B84E690E09E8B8D8B0E94CC000E94D0
:100BE00079000E9463000E947D04789461E081E0B6
:100BF0000E94E4048FE690E00E94A00461E082E09D
:100C00000E94E4048EE790E00E94A00461E083E08B
:100C10000E94E4048DE890E00E94A00461E084E07A
:100C20000E94E4048DE990E00E94A0048091AE004F
:100C30009091AF0028EE33E0B9010E94F709CB0193
:100C4000805D80936000E091AE00F091AF008091F4
:100C5000AE009091AF0028EE33E0B9010E94F70991
:100C6000CB019C0188EE93E0AC01249FC001259F3D
:100C7000900D349F900D11249F01281B390BC90141
:100C800024E630E0B9010E94F709CB01805D809332
:100C90006100E091AE00F091AF008091AE009091C4
:100CA000AF0024E630E0B9010E94F709CB019C01B6
:100CB00084E690E0AC01249FC001259F900D349FF5
:100CC000900D11249F01281B390BC9012AE030E047
:100CD000B9010E94F709CB01805D80936200809189
:100CE000AE009091AF00482F8091AE009091AF0080
:100CF0002AE030E0B9010E94F709CB019C01220FE4
:100D0000331FC901880F991F880F991F820F931FE6
:100D1000342F381B832F805D809363008091B00057
:100D20009091B10028EE33E0B9010E94F709CB01A0
:100D3000805D80936500E091B000F091B1008091FA
:100D4000B0009091B10028EE33E0B9010E94F7099C
:100D5000CB019C0188EE93E0AC01249FC001259F4C
:100D6000900D349F900D11249F01281B390BC90150
:100D700024E630E0B9010E94F709CB01805D809341
:100D80006600E091B000F091B1008091B0009091C8
:100D9000B10024E630E0B9010E94F709CB019C01C3
:100DA00084E690E0AC01249FC001259F900D349F04
:100DB000900D11249F01281B390BC9012AE030E056
:100DC000B9010E94F709CB01805D80936700809193
:100DD000B0009091B100482F8091B0009091B10087
:100DE0002AE030E0B9010E94F709CB019C01220FF3
:100DF000331FC901880F991F880F991F820F931FF6
:100E0000342F381B832F805D809368000091B200DF
:100E10001091B300C801AA2797FDA095BA2FBC0175
:100E2000CD010E943509698F7A8F8B8F9C8F11239A
:100E300084F420E030E040E857E4698D7A8D8B8DB2
:100E40009C8D0E94D608DC01CB01898F9A8FAB8FD5
:100E5000BC8F23E333E343ED5FE3698D7A8D8B8DA4
:100E60009C8D0E94AC09DC01CB01BC01CD010E942C
:100E70001809DC01CB019093B6008093B5008091F6
:100E8000B5009091B60028EE33E0B9010E94F70951
:100E9000CB01805D80936A00E091B500F091B600CF
:100EA0008091B5009091B60028EE33E0B9010E9420
:100EB000F709CB019C0188EE93E0AC01249FC001AF
:100EC000259F900D349F900D11249F01281B390BF5
:100ED000C90124E630E0B9010E94F709CB01805D29
:100EE00080936B008EE280936C00E091B500F091EE
:100EF000B6008091B5009091B60024E630E0B901CB
:100F00000E94F709CB019C0184E690E0AC01249F8C
:100F1000C001259F900D349F900D11249F01281B27
:100F2000390BC9012AE030E0B9010E94F709CB0171
:100F3000805D80936D008F89988D28EE33E0B90134
:100F40000E94F709CB01805D8093B8008F89988D4E
:100F500028EE33E0B9010E94F709CB019C0188EE2D
:100F600093E0A901489F9001499F300D589F300D93
:100F700011248F89988D821B930B24E630E0B901F0
:100F80000E94F709CB01805D8093B9008F89988D0D
:100F900024E630E0B9010E94F709CB019C0184E608
:100FA00090E0A901489F9001499F300D589F300D56
:100FB00011248F89988D821B930B2AE030E0B901B0
:100FC0000E94F709CB01805D8093BA004F898F8919
:100FD000988D2AE030E0B9010E94F709CB019C010D
:100FE000220F331FC901880F991F880F991F820F85
:100FF000931F542F581B852F805D8093BB006FE09B
:1010000081E00E94E40480E690E00E94A0046FE08A
:1010100082E00E94E40485E690E00E94A00460E182
:1010200083E00E94E4048AE690E00E94A0046BE062
:1010300084E00E94E40488EB90E00E94A00460E158
:1010400084E00E94E4048BEA90E00E94A004188EE1
:101050001F8A81E00E94E30080E090E0A0E2B1E41A
:101060008C879D87AE87BF8722E539E44DE950E440
:101070006C857D858E859F850E94AC09DC01CB0146
:10108000898B9A8BAB8BBC8B20E030E040E85FE330
:1010900069897A898B899C890E943F0988230CF091
:1010A00003C081E0888B18C020E030E04FE753E4B4
:1010B00069897A898B899C890E94420918160CF0EB
:1010C00002C0188A09C069897A898B899C890E9423
:1010D0001809DC01CB01888B88898B878B858A95E1
:1010E000F1F78B8781E00E9473011E8A1D8A55C02B
:1010F00080E090E0A0E8BFE38A839B83AC83BD835C
:1011000022E539E44DE950E46A817B818C819D813F
:101110000E94AC09DC01CB018F839887A987BA872D
:1011200020E030E040E85FE36F81788589859A852B
:101130000E943F0988230CF003C081E08E8318C011
:1011400020E030E04FE753E46F81788589859A8508
:101150000E94420918160CF002C01E8209C06F815D
:10116000788589859A850E941809DC01CB018E83D8
:101170008E81898389818A95F1F7898381E00E9434
:101180008300882329F08F89988D0196988F8F8B03
:101190008D899E8901969E8B8D8B8D899E892BE0F2
:1011A000893B920708F4A4CF41CD5058192EA6D000
:1011B00001D08CC0BA176207730784079507B1F195
:1011C00088F40EF410940B2EBA2FA02D062E622F49
:1011D000202D072E732F302D082E842F402D092E01
:1011E000952F502DFF275523B9F0591B49F0573E35
:1011F00098F0469537952795A795F0405395C9F7F0
:1012000076F0BA0F621F731F841F30F487957795AD
:101210006795B795F040939517FA0F2E0895BF1B69
:10122000BB27BA0B620B730B840BF6CFDEF692C0B2
:1012300097FB70D09F3738F0FEE9F91B982F872F66
:10124000762F6B2F05C083C0969587957795679508
:10125000F150D0F73EF490958095709561957F4F51
:101260008F4F9F4F0895E89403C097FB0EF4F3DF70
:10127000B62F672F782F892F9EE9002427C00ED024
:101280005EF004C00BD026F001C008D019F020F4A5
:101290008FEF089580E0089581E0089597FB092E6F
:1012A000052600F868942DD0E89407FC07C0621763
:1012B00073078407950721F008F400940794989425
:1012C00008959A95BB0F661F771F881F11249923D5
:1012D000A1F08823B2F79F3F59F0BB0F48F421F4E7
:1012E000002011F460FF04C06F5F7F4F8F4F9F4F4E
:1012F000881F9795879597F9089529C0052E092687
:1013000007FA440F551F5F3F79F0AA27A51708F089
:1013100051E04795880F991F9F3F31F0BB27B917C0
:1013200008F091E0879508959F919F9111245CC0EA
:1013300097FB880F991F9F3F31F0BB27B91708F023
:1013400091E0879508959F919F9111244DC0662744
:101350007727882799270895D1DF01D0B7CF992320
:1013600039F0552329F09F575F57950F13F49AF1E1
:10137000F1CF91589F3FE1F3629FA12D0F92BB27C0
:10138000639FA00DB11DEE27729FA00DB11DEE1F32
:10139000AF93AA27649FB00DE11D739FB00DE11DAF
:1013A000AA1F6627829FB00DE11DA61F5527749FB7
:1013B000E00DA11D551F839FE00DA11D561F849FA9
:1013C000A00D511D852F7A2F6E2F1F900F9088230F
:1013D0001AF4939539F408C0000C111CBB1F661F4A
:1013E000771F881F012808959FEF80EC0895AA1B9E
:1013F000BB1B51E107C0AA1FBB1FA617B70710F000
:10140000A61BB70B881F991F5A95A9F78095909531
:08141000BC01CD010895FFCFDE
:101418007465737400746573740074657374004C38
:10142800656674204272696768743A2020005269C0
:10143800676874204272696768743A200042617470
:10144800746572792053746174653A200044697335
:0E14580074616E63653A2031306D00636D0083
:00000001FF
