:100000000C942A000C9447000C9447000C94470071
:100010000C9447000C94FE030C9447000C9447008A
:100020000C9447000C9447000C9447000C941B045C
:100030000C9447000C9447000C9447000C94470024
:100040000C948B030C9447000C9447000C944700CD
:100050000C94470011241FBECFE5D8E0DEBFCDBF12
:1000600010E0A0E6B0E0E0EBF3E102C005900D92F5
:10007000A436B107D9F710E0A4E6B0E001C01D92A4
:10008000A838B107E1F70E94E5080C94D7090C9451
:100090000000CF93DF93CDB7DEB7E0E4F0E010824D
:1000A000E9E2F0E08FE08083EBE2F0E082E680833B
:1000B000EAE2F0E088E18083E0E4F0E086E8808333
:1000C000DF91CF910895CF93DF93CDB7DEB7E7E20D
:1000D000F0E080E48083E6E2F0E08EE98083A6E24F
:1000E000B0E0E6E2F0E0808180668C93DF91CF9112
:1000F0000895CF93DF93CDB7DEB7E4E3F0E010824D
:10010000DF91CF910895CF93DF93CDB7DEB72397DB
:100110000FB6F894DEBF0FBECDBF8B831A8281E08D
:1001200089838981282F33278B8199270197A901FA
:1001300002C0440F551F8A95E2F7CA018983E3E3A1
:10014000F0E080818A839A81898189238A838A81E8
:10015000992723960FB6F894DEBF0FBECDBFDF916F
:10016000CF910895CF93DF93CDB7DEB721970FB628
:10017000F894DEBF0FBECDBF1982E3E3F0E08081CB
:1001800089838981992721960FB6F894DEBF0FBE27
:10019000CDBFDF91CF910895CF93DF93CDB7DEB779
:1001A000E7E3F0E08FE08083E1E3F0E080EF80833D
:1001B000E8E3F0E08FEF8083E2E3F0E08FEF80830D
:1001C000DF91CF910895CF93DF93CDB7DEB723971B
:1001D0000FB6F894DEBF0FBECDBF89838981282F6B
:1001E00033273B832A838A819B818430910561F187
:1001F0002A813B812530310584F48A819B818230BC
:10020000910599F12A813B81233031052CF58A81B2
:100210009B818130910591F15DC02A813B8126301F
:10022000310509F446C08A819B81863091050CF422
:1002300049C02A813B812730310591F18A819B8118
:100240008830910521F146C0A2E3B0E0E2E3F0E09E
:1002500080818F778C933EC0A2E3B0E0E2E3F0E0D0
:1002600090818FEB89238C9335C0A2E3B0E0E2E369
:10027000F0E090818FED89238C932CC0A2E3B0E055
:10028000E2E3F0E090818FEE89238C9323C0A8E312
:10029000B0E0E8E3F0E0908187EF89238C931AC007
:1002A000A8E3B0E0E8E3F0E090818BEF89238C9342
:1002B00011C0A8E3B0E0E8E3F0E090818DEF89237E
:1002C0008C9308C0A8E3B0E0E8E3F0E090818EEF03
:1002D00089238C9323960FB6F894DEBF0FBECDBF53
:1002E000DF91CF910895CF93DF93CDB7DEB72397FA
:1002F0000FB6F894DEBF0FBECDBF89838981282F4A
:1003000033273B832A838A819B818430910561F165
:100310002A813B812530310584F48A819B8182309A
:10032000910591F12A813B81233031052CF58A8199
:100330009B818130910581F156C02A813B81263015
:10034000310509F441C08A819B81863091050CF406
:1003500043C02A813B812730310571F18A819B811D
:100360008830910509F13FC0A2E3B0E0E2E3F0E09C
:10037000808180688C9337C0A2E3B0E0E2E3F0E0D4
:10038000808180648C932FC0A2E3B0E0E2E3F0E0D0
:10039000808180628C9327C0A2E3B0E0E2E3F0E0CA
:1003A000808180618C931FC0A8E3B0E0E8E3F0E0B7
:1003B000808188608C9317C0A8E3B0E0E8E3F0E0A8
:1003C000808184608C930FC0A8E3B0E0E8E3F0E0A4
:1003D000808182608C9307C0A8E3B0E0E8E3F0E09E
:1003E000808181608C9323960FB6F894DEBF0FBE98
:1003F000CDBFDF91CF910895CF93DF93CDB7DEB717
:1004000023970FB6F894DEBF0FBECDBF89838981D5
:10041000282F33273B832A838A819B81843091054F
:1004200061F12A813B812530310584F48A819B81E9
:1004300082309105A1F12A813B812330310534F5C9
:100440008A819B818130910599F15EC02A813B812F
:100450002630310509F447C08A819B818630910599
:100460000CF44AC02A813B812730310599F18A81F9
:100470009B818830910529F147C0A2E3B0E0E2E317
:10048000F0E0908180E889278C933EC0A2E3B0E041
:10049000E2E3F0E0908180E489278C9335C0A2E309
:1004A000B0E0E2E3F0E0908180E289278C932CC0F9
:1004B000A2E3B0E0E2E3F0E0908180E189278C9351
:1004C00023C0A8E3B0E0E8E3F0E0908188E089276A
:1004D0008C931AC0A8E3B0E0E8E3F0E0908184E0F8
:1004E00089278C9311C0A8E3B0E0E8E3F0E09081A5
:1004F00082E089278C9308C0A8E3B0E0E8E3F0E04D
:10050000908181E089278C9323960FB6F894DEBF03
:100510000FBECDBFDF91CF910895CF93DF93CDB7BD
:10052000DEB721970FB6F894DEBF0FBECDBF89832B
:100530008981882324F488E00E94E30003C088E0D6
:100540000E9473018981992780749070009721F02F
:1005500087E00E94E30003C087E00E947301898165
:10056000992780729070009721F086E00E94E30046
:1005700003C086E00E947301898199278071907081
:10058000009721F085E00E94E30003C085E00E940F
:1005900073018981992788709070009721F084E019
:1005A0000E94E30003C084E00E94730189819927BF
:1005B00084709070009721F083E00E94E30003C0F4
:1005C00083E00E947301898199278270907000975F
:1005D00021F082E00E94E30003C082E00E947301E8
:1005E0008981992781709070882321F081E00E9491
:1005F000E30003C081E00E94730121960FB6F894D6
:10060000DEBF0FBECDBFDF91CF910895CF93DF93B3
:10061000CDB7DEB723970FB6F894DEBF0FBECDBFC0
:1006200089838981282F33273B832A838A819B8171
:100630008430910509F44FC02A813B812530310572
:10064000D4F48A819B8181309105C9F12A813B8153
:10065000223031052CF48A819B81009761F152C0D0
:100660002A813B812230310571F18A819B8183305F
:10067000910569F147C02A813B8127303105B9F1E5
:100680008A819B81883091055CF42A813B812530E9
:10069000310529F18A819B818630910521F132C093
:1006A0002A813B812830310531F18A819B81893053
:1006B000910529F127C08EEE0E948D0223C080E6AD
:1006C0000E948D021FC08DEC0E948D021BC089EE1E
:1006D0000E948D0217C083E60E948D0213C08BEA30
:1006E0000E948D020FC08FEA0E948D020BC080EE27
:1006F0000E948D0207C08FEE0E948D0203C08BEE18
:100700000E948D0223960FB6F894DEBF0FBECDBFB8
:10071000DF91CF9108951F920F920FB60F9211247F
:100720002F933F938F939F93EF93FF93CF93DF93F9
:10073000CDB7DEB72297DEBFCDBF80917300282FE3
:1007400033273A83298389819A81009731F029815F
:100750003A812130310511F140C0E4E2F0E08081BE
:1007600099279093630080936200E5E2F0E0808136
:100770009927982F88279C018091620090916300AF
:10078000822B932B909363008093620081E080938F
:100790007300E7E2F0E081E480831FC0E4E2F0E070
:1007A000808199279093610080936000E5E2F0E0FA
:1007B00080819927982F88279C01809160009091D3
:1007C0006100822B932B90936100809360001092C4
:1007D0007300E7E2F0E080E480832296F894DEBFC5
:1007E000CDBFDF91CF91FF91EF919F918F913F917D
:1007F0002F910F900FBE0F901F9018951F920F9280
:100800000FB60F9211248F939F93CF93DF93CDB7A1
:10081000DEB7809165009091660001969093660026
:1008200080936500DF91CF919F918F910F900FBEC4
:100830000F901F9018951F920F920FB60F921124D0
:100840002F933F934F935F936F937F938F939F93D8
:10085000AF93BF93EF93FF93CF93DF93CDB7DEB703
:100860002497DEBFCDBF809187008F5F8093870084
:10087000809186008F5F8093860080918700282F6B
:10088000332780916700909168008217930768F181
:1008900081E00E94E30080916B00282F33273C8386
:1008A0002B838B819C818130910589F02B813C8148
:1008B0002230310599F08B819C81009709F018C096
:1008C00082E00E94730183E00E94730111C082E004
:1008D0000E94E30083E00E9473010AC082E00E944C
:1008E000730183E00E94E30003C081E00E94730172
:1008F00080918600282F33278091690090916A00AB
:100900008217930768F184E00E94E30080916C00F5
:10091000282F33273A83298389819A818130910551
:1009200089F029813A812230310599F089819A81B3
:10093000009709F018C085E00E94730186E00E94CC
:10094000730111C085E00E94E30086E00E947301FC
:100950000AC085E00E94730186E00E94E30003C0A4
:1009600084E00E94730180918700853611F4109213
:10097000870080918600853611F41092860081E010
:100980000E94830080936F0082E00E948300809326
:10099000700083E00E94830080936D0084E00E94D9
:1009A000830080936E002496F894DEBFCDBFDF9164
:1009B000CF91FF91EF91BF91AF919F918F917F91D7
:1009C0006F915F914F913F912F910F900FBE0F90BC
:1009D0001F901895CF93DF93CDB7DEB7E4E4F0E036
:1009E0001082E5E4F0E084E08083E2E5F0E010824C
:1009F000E3E5F0E082E08083A9E5B0E0E9E5F0E03E
:100A0000808181648C93DF91CF910895CF93DF93A0
:100A1000CDB7DEB728970FB6F894DEBF0FBECDBFB7
:100A20009A8389837C836B8389819A81992314F4C7
:100A30001A82198289819A818B30910524F08AE08B
:100A400090E09A8389838B819C81992314F41C8282
:100A50001B828B819C818B30910524F08AE090E091
:100A60009C838B8389819A819E838D838D819E81D6
:100A70008530910509F460C08D819E818630910595
:100A8000E4F48D819E818230910509F440C08D810E
:100A90009E818330910534F48D819E818130910552
:100AA00079F173C08D819E8183309105B9F18D817B
:100AB0009E8184309105C9F168C08D819E81883006
:100AC000910509F44EC08D819E81893091055CF4B9
:100AD0008D819E8186309105B1F18D819E81873017
:100AE0009105C1F152C08D819E818930910509F433
:100AF0003FC08D819E818A30910509F440C045C078
:100B00008CE090E090936800809367003EC084E1A1
:100B100090E0909368008093670037C08EE190E08A
:100B2000909368008093670030C088E290E09093D3
:100B300068008093670029C082E390E0909368008A
:100B40008093670022C08CE390E0909368008093CC
:100B500067001BC086E490E0909368008093670074
:100B600014C080E590E090936800809367000DC00A
:100B70008AE590E0909368008093670006C084E661
:100B800090E090936800809367008B819C819887A8
:100B90008F838F8198858530910509F460C08F819E
:100BA000988586309105E4F48F819885823091058F
:100BB00009F440C08F8198858330910534F48F818A
:100BC00098858130910579F173C08F819885833044
:100BD0009105B9F18F81988584309105C9F168C07C
:100BE0008F8198858830910509F44EC08F81988552
:100BF000893091055CF48F81988586309105B1F13B
:100C00008F81988587309105C1F152C08F81988579
:100C10008930910509F43FC08F8198858A3091050C
:100C200009F440C045C08CE090E090936A00809346
:100C300069003EC084E190E090936A00809369006F
:100C400037C08EE190E090936A008093690030C0D5
:100C500088E290E090936A008093690029C082E363
:100C600090E090936A008093690022C08CE390E04A
:100C700090936A00809369001BC086E490E0909393
:100C80006A008093690014C080E590E090936A0048
:100C9000809369000DC08AE590E090936A0080938C
:100CA000690006C084E690E090936A008093690032
:100CB00028960FB6F894DEBF0FBECDBFDF91CF915F
:100CC0000895CF93DF93CDB7DEB722970FB6F89490
:100CD000DEBF0FBECDBF9A8389834CC08091760062
:100CE000882329F480916F00882309F45DC08091E6
:100CF0007600882329F480917000882309F454C079
:100D000080917600882329F480916D00882309F072
:100D10004BC080917600882329F480916E0088234F
:100D200009F042C080917600882381F480916000B0
:100D30009091610021E0843F920740F08091600033
:100D40009091610023E08132920770F180917600EA
:100D5000882381F4809162009091630021E0843FB8
:100D6000920740F0809162009091630023E081320D
:100D70009207D0F029813A81C901880F991F880F05
:100D8000991F880F991F820F931F2AE030E0B90145
:100D90000E94B009CB019C01809165009091660092
:100DA0002817390708F09ACF22960FB6F894DEBFBD
:100DB0000FBECDBFDF91CF910895CF93DF93CDB715
:100DC000DEB726970FB6F894DEBF0FBECDBF9A836D
:100DD00089837C836B835E834D838B819C81992384
:100DE0001CF482E080936B008B819C81181619069D
:100DF0001CF481E080936B008B819C81009711F43F
:100E000010926B008D819E8199231CF482E0809367
:100E10006C008D819E81181619061CF481E0809368
:100E20006C008D819E81009711F410926C008D8171
:100E30009E812B813C81BC01C9010E94060581E095
:100E400090E0909366008093650089819A810E946A
:100E5000610610926B0010926C0026960FB6F89403
:100E6000DEBF0FBECDBFDF91CF910895CF93DF934B
:100E7000CDB7DEB723970FB6F894DEBF0FBECDBF58
:100E80009A8389836B838B81282F33278B819927C2
:100E9000B9010E94060581E080936B0081E0809398
:100EA0006C0081E090E090936600809365008981FA
:100EB0009A810E94610610926B0010926C0023963A
:100EC0000FB6F894DEBF0FBECDBFDF91CF9108956E
:100ED000CF93DF93CDB7DEB723970FB6F894DEBF7D
:100EE0000FBECDBF9A8389836B838B81282F3327D5
:100EF0008B819927B9010E94060510926B0081E051
:100F000080936C0081E090E0909366008093650090
:100F100089819A810E94610610926B0010926C0088
:100F200023960FB6F894DEBF0FBECDBFDF91CF91F1
:100F30000895CF93DF93CDB7DEB723970FB6F8941C
:100F4000DEBF0FBECDBF9A8389836B838B81282F31
:100F500033278B819927B9010E94060581E0809390
:100F60006B0010926C0081E090E09093660080939B
:100F7000650089819A810E94610610926B0010922F
:100F80006C0023960FB6F894DEBF0FBECDBFDF9185
:100F9000CF910895CF93DF93CDB7DEB723970FB6E8
:100FA000F894DEBF0FBECDBF9A8389836B838B819C
:100FB000282F33278B819927B9010E94060582E0EB
:100FC00080936B0082E080936C0081E090E09093CE
:100FD00066008093650089819A810E946106109263
:100FE0006B0010926C0023960FB6F894DEBF0FBE14
:100FF000CDBFDF91CF910895CF93DF93CDB7DEB70B
:1010000023970FB6F894DEBF0FBECDBF9A838983B6
:101010006B838B81282F33278B819927B9010E94FD
:10102000060510926B0082E080936C0081E090E0F6
:10103000909366008093650089819A810E94610681
:1010400010926B0010926C0023960FB6F894DEBFDE
:101050000FBECDBFDF91CF910895CF93DF93CDB772
:10106000DEB723970FB6F894DEBF0FBECDBF9A83CD
:1010700089836B838B81282F33278B819927B90133
:101080000E94060582E080936B0010926C0081E064
:1010900090E0909366008093650089819A810E9418
:1010A000610610926B0010926C0023960FB6F894B4
:1010B000DEBF0FBECDBFDF91CF910895CF93DF93F9
:1010C000CDB7DEB722970FB6F894DEBF0FBECDBF07
:1010D0009A83898310926B0010926C0081E090E0FB
:1010E000909366008093650089819A810E946106D1
:1010F00022960FB6F894DEBF0FBECDBFDF91CF9121
:101100000895CF93DF93CDB7DEB723970FB6F8944A
:10111000DEBF0FBECDBF9A8389836B838B81282F5F
:1011200033278B819927B9010E94060581E08093BE
:101130006B0082E080936C0081E090E09093660009
:101140008093650089819A810E94610610926B00EC
:1011500010926C0023960FB6F894DEBF0FBECDBF81
:10116000DF91CF910895CF93DF93CDB7DEB723976B
:101170000FB6F894DEBF0FBECDBF9A8389836B8311
:101180008B81282F33278B819927B9010E9406056F
:1011900082E080936B0081E080936C0081E090E0BE
:1011A000909366008093650089819A810E94610610
:1011B00010926B0010926C0023960FB6F894DEBF6D
:1011C0000FBECDBFDF91CF910895CF93DF93CDB701
:1011D000DEB726970FB6F894DEBF0FBECDBF0E94D4
:1011E000CC000E9479000E94EA040E946300789477
:1011F00087E00E9483008823D9F700C065E088EE6D
:1012000093E00E94360714C081E08093760064E08A
:1012100088EC90E00E94B30864E088EE93E00E94BE
:10122000CA0764E084EF91E00E94B3081092760050
:10123000809160009091610023E081329207E8F490
:10124000809160009091610021E0843F9207E0F678
:1012500014C081E08093760064E088EC90E00E9406
:10126000810864E088EE93E00E94CA0764E084EF9E
:1012700091E00E9481081092760080916200909126
:10128000630023E08132920740F4809162009091E4
:10129000630021E0843F9207E0F680916F0088238D
:1012A00079F481E08093760065E082E390E00E942B
:1012B000CA0765E08CEB92E00E94810810927600EC
:1012C00080917000882379F481E08093760065E056
:1012D00082E390E00E94CA0765E08CEB92E00E94F6
:1012E000B3081092760080916D00882379F081E038
:1012F0008093760065E082E390E00E94CA0765E093
:101300008CEB92E00E9481081092760080916E0032
:10131000882309F473CF81E08093760065E082E34F
:1013200090E00E94CA0765E08CEB92E00E94B3084F
:101330001092760063CFCF93DF93CDB7DEB7DF9106
:10134000CF910895CF93DF93CDB7DEB7DF91CF91E3
:101350000895CF93DF93CDB7DEB7DF91CF91089596
:1013600097FB092E07260AD077FD04D00CD006D0B3
:1013700000201AF4709561957F4F0895F6F79095C7
:1013800081959F4F0895AA1BBB1B51E107C0AA1F5F
:10139000BB1FA617B70710F0A61BB70B881F991F16
:1013A0005A95A9F780959095BC01CD010895FFCF7E
:0413B000BC02BC02BD
:00000001FF
